:1000000010C017C016C015C014C013C012C011C054
:1000100010C00FC00EC00DC00CC00BC00AC009C07C
:1000200008C011241FBECFE5D2E0DEBFCDBF34D063
:100030004EC0E6CF8FEF86B981BB84BB17B815BA27
:1000400080EC82BB08952FEF2ABB399A8BBB95BBFE
:1000500039986BBB969885E38A95F1F70000969ADC
:1000600008952FEF2ABB399A8BBB95BB39981ABAE2
:100070008FEE9AE00197F1F700C00000979895E3A2
:100080009A95F1F7000089B3979AEFEEFAE031976D
:10009000F1F700C000000895CDDF60E080E090E25D
:1000A000D2DF6FEF80E090E4CEDF6DE680E090E895
:1000B000CADF82E090E2D5DF682F82E090E8C3DFFC
:1000C00081E090E8CEDF682F81E090E4F1CFF894F2
:0200D000FFCF60
:00000001FF
